:1000000015C4000044C4000042C4000040C4000005
:100010003EC400003CC400003AC4000038C40000E4
:1000200036C4000034C4000032C4000030C40000F4
:100030002EC400002CC400002AC4000028C4000004
:1000400026C4000024C4000022C4000020C4000014
:1000500038C600001CC400001AC400000C947614BA
:1000600016C400000C9414140C943F1310C4000028
:100070000EC400000CC400000AC4000008C4000044
:1000800006C4000004C4000002C4000000C4000054
:100090000C94E2130C940013FAC30000F8C30000A0
:1000A000F6C30000F4C30000F2C30000F0C3000078
:1000B000EEC30000ECC30000EAC30000E8C3000088
:1000C000E6C30000E4C30000E2C300000C94B013D8
:1000D0000C94C112DCC300000C947E130C948212A9
:1000E000D6C30000C417C717BA17BE17FE17CB1721
:1000F000CF17D517D917DD17E317E717EB17FE173B
:10010000F117F517F9170000090A02080B0C0D0783
:1001100006030401000000000000000000000000D1
:1001200000000000000000000000000000000000CF
:10013000000011100F00000000000000000000008F
:1001400000000000000000000000000000000000AF
:10015000000000000000000000000000000000009F
:10016000000000000000000000000000000000008F
:10017000000000000000000000000000000000007F
:10018000000000000000000000000000000001016D
:10019000010101010101010101010101010101014F
:1001A000010101010101010101010101010101013F
:1001B0000101020202020202020202020202020221
:1001C0000202020202020202020303030303030308
:1001D00003030303030303030303030404040404EA
:1001E00004040404040404040404050505050505C9
:1001F00005050505050505060606060606060606A6
:10020000060606070707070707070707070708087F
:100210000808080808080808090909090909090956
:10022000090A0A0A0A0A0A0A0A0A0B0B0B0B0B0B29
:100230000B0B0C0C0C0C0C0C0C0C0D0D0D0D0D0DFA
:100240000D0E0E0E0E0E0E0E0F0F0F0F594F5955AD
:100250004E43414B2048495A4C4926504544414C55
:100260004C490080000200001000000000003E5BCE
:100270004F5B3E3E6B4F6B3E1C3E7C3E1C183C7EF3
:100280003C181C577D571C1C5E7F5E1C00183C18D8
:1002900000FFE7C3E7FF0018241800FFE7DBE7FFD4
:1002A00030483A060E2629792926407F0505074061
:1002B0007F05253F5A3CE73C5A7F3E1C1C08081C22
:1002C0001C3E7F14227F22145F5F005F5F06097F60
:1002D000017F006689956A606060606094A2FFA2F9
:1002E0009408047E040810207E201008082A1C08A8
:1002F000081C2A08081E101010100C1E0C1E0C30B2
:10030000383E3830060E3E0E0600000000000000A9
:100310005F00000007000700147F147F14242A7F69
:100320002A12231308646236495620500008070336
:1003300000001C2241000041221C002A1C7F1C2AB4
:1003400008083E0808008070300008080808080007
:100350000060600020100804023E5149453E004202
:100360007F400072494949462141494D33181412D2
:100370007F1027454545393C4A49493141211109FA
:10038000073649494936464949291E0000140000EC
:100390000040340000000814224114141414140006
:1003A0004122140802015909063E415D594E7C1252
:1003B00011127C7F494949363E414141227F4141EA
:1003C000413E7F494949417F090909013E41415167
:1003D000737F0808087F00417F41002040413F01B2
:1003E0007F081422417F404040407F021C027F7FF3
:1003F0000408107F3E4141413E7F090909063E4104
:1004000051215E7F09192946264949493203017F56
:1004100001033F4040403F1F2040201F3F403840E5
:100420003F631408146303047804036159494D437E
:10043000007F4141410204081020004141417F04F6
:1004400002010204404040404000030708002054DD
:100450005478407F2844443838444444283844443D
:10046000287F385454541800087E090218A4A49C0C
:10047000787F0804047800447D40002040403D001F
:100480007F1028440000417F40007C047804787C81
:10049000080404783844444438FC182424181824E8
:1004A0002418FC7C08040408485454542404043FD1
:1004B00044243C4040207C1C2040201C3C403040D8
:1004C0003C44281028444C9090907C4464544C4404
:1004D00000083641000000770000004136080002A5
:1004E000010204023C2623263C1EA1A161123A40CF
:1004F00040207A3854545559215555794122545445
:100500007842215554784020545579400C1E52723F
:10051000123955555559395454545939555454581C
:100520000000457C410002457D420001457C407D44
:100530001211127DF0282528F07C545545002054D6
:10054000547C547C0A097F4932494949323A44442F
:10055000443A324A4848303A4141217A3A424020AE
:1005600078009DA0A07D3D4242423D3D4040403D3F
:100570003C24FF2424487E4943662B2FFC2F2BFF6D
:100580000929F620C0887E090320545479410000CF
:10059000447D413048484A32384040227A007A0A45
:1005A0000A727D0D19317D2629292F28262929290E
:1005B0002630484D40203808080808080808083840
:1005C0002F10C8ACBA2F102834FA00007B000008A6
:1005D000142A142222142A14085500550055AA552D
:1005E000AA55AAFF55FF55FF000000FF001010108C
:1005F000FF00141414FF001010FF00FF1010F01083
:10060000F0141414FC001414F700FF0000FF00FFA6
:100610001414F404FC141417101F10101F101F14CE
:1006200014141F00101010F0000000001F10101014
:10063000101F10101010F010000000FF101010100C
:100640001010101010FF10000000FF140000FF0039
:10065000FF00001F10170000FC04F41414171017FB
:100660001414F404F40000FF00F714141414141408
:1006700014F700F7141414171410101F101F14147B
:1006800014F4141010F010F000001F101F000000F0
:100690001F14000000FC140000F010F01010FF10F8
:1006A000FF141414FF141010101F00000000F010AD
:1006B000FFFFFFFFFFF0F0F0F0F0FFFFFF00000092
:1006C0000000FFFF0F0F0F0F0F3844443844FC4A5F
:1006D0004A4A347E02020606027E027E02635549C1
:1006E00041633844443C04407E201E2006027E02C2
:1006F0000299A5E7A5991C2A492A1C4C7201724C43
:10070000304A4D4D303048784830BC625A463D3E04
:10071000494949007E0101017E2A2A2A2A2A4444A5
:100720005F444440514A444040444A51400000FF25
:100730000103E080FF000008086B6B0836123624C6
:1007400036060F090F0600001818000000101000F0
:100750003040FF0101001F01011E00191D1712008A
:100760003C3C3C3C0000000000000021002400272D
:10077000002A002D003000330001010000040107B1
:10078000010A01010210202008081020401020401A
:100790008002010201080402010102040810204045
:1007A0008080402010080402018004020180402063
:1007B000100804020108040201010204081020408C
:1007C000800102040810204080000022002500283B
:1007D000002B002E0031003400020100000501084A
:1007E000010B0105050505070508080808020202B6
:1007F000020A0A08080404040401010101010101BC
:10080000010303030303030303040707070C0C0C92
:100810000C0C0C0C0C02020202060606060606066A
:10082000060B0B0B0B0B0B0B0B00CC1D11241FBE6F
:10083000CFEFD1E2DEBFCDBF00E00CBF13E0A0E000
:10084000B2E0E6E1F9E400E00BBF02C007900D92D0
:10085000A232B107D9F726E0A2E2B3E001C01D92AF
:10086000AE32B207E1F714E0C6E1D4E000E006C022
:1008700021970109802FFE010E943A20C531D1073E
:1008800080E00807A9F70E94EC160C948924B8CBE5
:100890000F931F93DC01ED91FC91008CF18DE02D05
:1008A00019951F910F910895DC01ED91FC91048041
:1008B000F581E02D199408952F923F924F925F9207
:1008C0006F927F928F929F92AF92BF92CF92DF9260
:1008D000EF92FF920F931F93CF93DF9300D0CDB78A
:1008E000DEB74C017B836A836A01590117019801C5
:1008F000241B350B37FF03C0319521953109C50104
:100900004A815B81841B950B97FF03C0919581956C
:10091000910951E059838217930714F019820BC093
:100920009A2D8B2D5801092F182F9A818B81DB82EC
:10093000CA82C92ED82E8A819B81A816B9065CF47A
:100940009C2D8D2D6801092F182F9A818B81BB82D8
:10095000AA82A92EB82E2501AA81BB814A1A5B0A58
:1009600038016C187D0877FE03C07194619471089A
:10097000720157FE03C0BFEFEB1AFB0AF594E79430
:10098000C016D1061CF00FEF1FEF1FC001E010E0F2
:100990001CC0D401ED91FC91B9810084F185E02D5A
:1009A0009101BB23C1F04A815B81B601C401199555
:1009B000E618F708F7FE04C0C00ED11EE40CF51CC3
:1009C000EA81FB813196FB83EA834A815B81A4162D
:1009D000B506FCF604C0A6016A817B81E7CF0F90C3
:1009E0000F900F90DF91CF911F910F91FF90EF909B
:1009F000DF90CF90BF90AF909F908F907F906F903F
:100A00005F904F903F902F900895CF92DF92EF929A
:100A1000FF920F931F93CF93DF93DC0177FD22C1E9
:100A200018968D919C911997681779070CF01AC147
:100A300057FD18C11A968D919C911B97481759071D
:100A40000CF010C15596EC91559714968D919C9190
:100A50001597E23059F0E330C9F0E13001F5FC01BF
:100A60003197E41BF50BAB01BF0119C0FC013197B5
:100A7000EF01C61BD70BBE011696ED91FC9117979F
:100A80003197EF01C41BD50BAE0109C01696ED914D
:100A9000FC9117973197E61BF70BBA01AF0189015B
:100AA000012F112702950F70F02EE901CC0FCD2FE9
:100AB000CC1FDD0BD195EC2FEF70EE2E36952795E0
:100AC000E22FEF70DE2E5E96EC915E97F0E0017003
:100AD00011273C2F317021704E175F070CF06CC04E
:100AE0005F96EC915F97ED01CE0FD11DCE0FD11D1A
:100AF000489FF001499FF00D589FF00D1124AF0160
:100B0000440F551FE40FF51F6E0F7F1FEA8DFB8DFD
:100B1000E60FF71F880F991FEF01C80FD91F8881B3
:100B20008C7F8883012B59F01496CD91DC91159719
:100B3000CC0FDD1FCE0FDF1F8881816088833323B8
:100B400059F01496CD91DC911597CC0FDD1FCE0F87
:100B5000DF1F8881826088831496CD91DC91159780
:100B6000CE0FDF1F8881222331F08160888323E04C
:100B700030E092E01AC08E7FF9CF8083892F8E21DA
:100B800019F0808188608083892F8D2119F0808100
:100B90008061808314964D915C911597E40FF51F49
:100BA000990F2150310909F45DC08081837E492F5E
:100BB0004F2119F38460E1CF5F96CC905F97ED01F0
:100BC000CC0DD11DCC0DD11D4E1B5F0B489FF001EC
:100BD000499FF00D589FF00D1124CF01880F991FE8
:100BE000E80FF91F6E0F7F1FEA8DFB8DE60FF71FD1
:100BF00080818C7F80831496CD91DC911597CE0FE8
:100C0000DF1F8881012B11F0826001C08D7F8883F6
:100C1000332319F0808181608083222319F0808141
:100C20008260808323E030E092E080818F71492FE1
:100C30004F2109F080628083892F8E2119F08081F5
:100C400080648083892F8D2119F080818068808362
:100C500014964D915C911597E40FF51F990F215053
:100C6000310919F7DF91CF911F910F91FF90EF900C
:100C7000DF90CF9008959B01215031092E3F3F4FC7
:100C8000F0F0DC015F962C915F975E963C915E9749
:100C90001496ED91FC9115973E9FA0013F9F500D3A
:100CA0001124FA01EE0FFF1F4E0F5F1FFC01E20F30
:100CB000F11DE20FF11D828D938D0C947B240C9419
:100CC0006D111F920F920FB60F9211240BB60F9257
:100CD000EF92FF920F931F932F933F934F935F9346
:100CE0006F937F938F939F93AF93BF93CF93DF9334
:100CF000EF93FF93A0912E03B0912F03D196ED9126
:100D0000FC91D29790819A968C919A97892B8083A7
:100D10009F96ED91FC91D097908199968C9199979F
:100D2000892B80835E963C915E97393018F480E978
:100D300091E002C088EC90E0DC962C91DC9788581A
:100D40009F4F02C0880F991F2A95E2F7CC97DC9637
:100D50002C91DC972F5FDC962C93DC97243090F15C
:100D6000DC961C92DC97DB962C91DB972F5FDB9651
:100D70002C93DB97231708F47CC0DB961C92DB973F
:100D800090962C919097213051F45F963C915F970B
:100D9000231B5F962C935F9790961C9290975F967B
:100DA0002C915F97E1E0F0E0E21BF1093D96EE0F38
:100DB000FF1FEA0FFB1F20813181DE963C932E93AB
:100DC000DD9757C0DC962C91DC97213009F051C09B
:100DD000DB963C91DB97D396ED91FC91D4979B9653
:100DE0002C919B9730FF03C03081232B03C03081AF
:100DF000209523232083DB963C91DB97D596ED91BC
:100E0000FC91D6979C962C919C9731FF03C0308122
:100E1000232B03C03081209523232083DB963C9134
:100E2000DB97D796ED91FC91D8979D962C919D9745
:100E300032FF03C03081232B03C030812095232350
:100E400020835E962C915E97293098F0DB963C913A
:100E5000DB97D996ED91FC91DA979E962C919E970F
:100E600033FF03C03081232B03C03081209523231F
:100E70002083DD96ED91FC91DE979093870080931F
:100E800086001092850010928400D196CD91DC915D
:100E9000D29798819A968C919A9780958923888386
:100EA0009F96CD91DC91D097988199968C91999746
:100EB00080958923888395B198968C919897892BF2
:100EC000DC962C91DC97222309F40DC1019002B825
:100ED00085B995B9019002B885B995B9019002B864
:100EE00085B995B9019002B885B995B9019002B854
:100EF00085B995B9019002B885B995B9019002B844
:100F000085B995B9019002B885B995B9019002B833
:100F100085B995B9019002B885B995B9019002B823
:100F200085B995B9019002B885B995B9019002B813
:100F300085B995B9019002B885B995B9019002B803
:100F400085B995B9019002B885B995B9019002B8F3
:100F500085B995B9019002B885B995B9019002B8E3
:100F600085B995B9019002B885B995B9019002B8D3
:100F700085B995B9019002B885B995B9019002B8C3
:100F800085B995B9019002B885B995B9019002B8B3
:100F900085B995B9019002B885B995B9019002B8A3
:100FA00085B995B9019002B885B995B9019002B893
:100FB00085B995B9019002B885B995B9019002B883
:100FC00085B995B9019002B885B995B914962D9156
:100FD0003C9115972034310509F080C0019002B88A
:100FE00085B995B9019002B885B995B9019002B853
:100FF00085B995B9019002B885B995B9019002B843
:1010000085B995B9019002B885B995B9019002B832
:1010100085B995B9019002B885B995B9019002B822
:1010200085B995B9019002B885B995B9019002B812
:1010300085B995B9019002B885B995B9019002B802
:1010400085B995B9019002B885B995B9019002B8F2
:1010500085B995B9019002B885B995B9019002B8E2
:1010600085B995B9019002B885B995B9019002B8D2
:1010700085B995B9019002B885B995B9019002B8C2
:1010800085B995B9019002B885B995B9019002B8B2
:1010900085B995B9019002B885B995B9019002B8A2
:1010A00085B995B9019002B885B995B9019002B892
:1010B00085B995B9019002B885B995B9019002B882
:1010C00085B995B9019002B885B995B9019002B872
:1010D00085B995B9019002B885B995B9DE96FC93AA
:1010E000EE93DD9733C0F12C6F2D70E014964D9187
:1010F0005C911597641775074CF58B01040F151F4C
:101100009F01200F311FE9012881D0E12D9F90011F
:101110001124C22FC073EC2E4E0F5F1F400F511FC2
:10112000EA013881D4E03D9F900111242C702E29D2
:101130006E0F7F1FEB014881D0E44D9FA001112469
:10114000242B22B985B995B9F394CECF86B386BB4B
:10115000FF91EF91DF91CF91BF91AF919F918F91CF
:101160007F916F915F914F913F912F911F910F91BF
:10117000FF90EF900F900BBE0F900FBE0F901F903F
:1011800018958830F0F427E0281B482F50E0CA015A
:10119000E5E0880F991FEA95E1F7542F4427482B83
:1011A000592B822F90E0982F88279295990F907E47
:1011B000842B952B267030E0322F2227330F330FEC
:1011C0002DC08031A0F428EF280F4FE0481B50E0DD
:1011D000CA0165E0880F991F6A95E1F7542F4427EB
:1011E000482B592B34E0239FC001112411C030EF4C
:1011F000380F27E1281B40E2349FC00111249927B2
:101200003770932B422F477034E0439FA001112485
:10121000842B952B267030E035952795822B932BC8
:10122000089583E794E029D41816190624F483E777
:1012300094E0E7D3F6CF0895CF93DF93CBEED5E0DC
:101240001D861C861F861E868FE190E09B8B8A8BF5
:10125000998B888B6BE472E0CE010E94DC1680EEE5
:1012600097E09B8B8A8B998B888B65E572E0CE012A
:101270000E94DC166BE572E0CE010E94DC1663E68C
:1012800072E0CE010E94DC1681E0DF91CF910C94D8
:10129000E9140F931F93CF93DF93CDB7DEB7609719
:1012A0000FB6F894DEBF0FBECDBF64E670E080E0FD
:1012B00090E00E9446148AE0E3E2F3E0DF011D9231
:1012C0008A95E9F767EC72E0CE0101960E94F3156A
:1012D00083E794E0D2D3892B09F488C067EC72E0ED
:1012E000CE0108960E94F3150E9494150C851D8569
:1012F00097FD1CC083369105C9F08F87188A0F5F50
:101300001F4FB801CE0108960E94CC15882361F3C7
:10131000288539858C859D85BE01615F7F4F820F51
:10132000931F0E9482241D870C87DECF89819A81BA
:10133000009781F02B813C812017310748F06885A8
:1013400079850E9482248C859D859E838D8312C021
:101350000E94F622888599859A8389838A859B8550
:101360009C838B838C859D859E838D8319861886AF
:101370001B861A861D861C86888599850E94F62202
:1013800000E010E08D819E8108171907C0F4E091FC
:10139000C705F091C8050190F081E02D29813A81BF
:1013A0002115310529F0D901A00FB11F6C9101C0A1
:1013B00060E087EC95E019950F5F1F4FE3CF87EC56
:1013C00095E00E943A168D819E81892B21F0E9815A
:1013D000FA81309721F410922203E2E2F3E0808157
:1013E000809330031EDF83E794E000D389819A81E4
:1013F0000E94F62260960FB6F894DEBF0FBECDBFF6
:10140000DF91CF911F910F9108952F923F924F92AC
:101410005F926F927F928F929F92AF92BF92CF9284
:10142000DF92EF92FF920F931F93CF93DF93CDB78D
:10143000DEB72A970FB6F894DEBF0FBECDBF60E0CF
:1014400070E08BEE95E017DC1092F8051092F7052E
:101450001092FA051092F90581E08093FF050E9431
:101460006A146B837C838D839E8321E030E03A8312
:1014700029831A861986812C912C54014FEF5FEF36
:1014800058874F83212C38EF332E83E794E0F5D231
:10149000892B09F0FEDE0E946A14DC01CB012B814E
:1014A0003C814D815E81821B930BA40BB50B8D3D5E
:1014B0009540A105B10560F00E946A146B837C839E
:1014C0008D839E8349815A814F5F5F4F5A83498341
:1014D00080913003863539F480913103E82FF0E0B4
:1014E000F887EF833AC18434F9F46091320370E0F5
:1014F000762F662780913103682B80E090E00E9470
:10150000442126E636E646EE5EE30E94FA214B01D0
:101510005C0126EF38E248E051E40E94AB200E94D3
:1015200018217A87698719C18F3409F016C160E0E4
:1015300070E08BEE95E09FDB1092F8051092F705B6
:101540001092FA051092F905F1E0F093FF0520EEF4
:1015500037E03093FE052093FD053093FC05209382
:10156000FB058F8198850E94AF166BE672E08BEECB
:1015700095E00E94DC164FEF57E05093FE05409334
:10158000FD055093FC054093FB05A5019401C501A1
:10159000B4010E945D22882319F062E772E01AC04C
:1015A00075016401E894F7F82FEF3FEF4FE75FE72D
:1015B000C701B6010E945D22811111C02FEF3FEFDC
:1015C0004FE75FE7C701B6010E94A72018163CF459
:1015D00066E772E08BEE95E00E944C1683C02FEF19
:1015E0003FEF4FE75FE4C501B4010E94F6211816F2
:1015F0001CF46AE772E0EECF2FEF3FEF4FE75FECAE
:10160000C501B4010E94A72087FDF3CF20E030E0A0
:10161000A901C501B4010E94A72087FF09C06DE29E
:101620008BEE95E00E943316C501B401905802C0BC
:10163000C501B4012AE037ED43EA5BE30E94432091
:101640006B017C010E9418212B013C010E94442166
:101650009B01AC01C701B6010E9442206B017C01D5
:101660004AE0C301B2010E94611662E073E08BEEB2
:1016700095E00E944C1613E01150A1F120E030E0FB
:1016800040E251E4C701B6010E94FA216B017C01DE
:101690000E9413212B01770F6608770877FE10C090
:1016A0006DE28BEE95E00E94331688279927DC01C6
:1016B00084199509A609B7094AE0BC01CD0103C008
:1016C0004AE0C301B2010E946116C301B2010E9447
:1016D00046219B01AC01C701B6010E9442206B016B
:1016E0007C01CACF6EE772E08BEE95E00E94DC16BB
:1016F00080EE9FEF9093FE058093FD059093FC058F
:101700008093FB05E985FA85CF01A0E0B0E04AE0CF
:10171000BC01CD010E94611661E872E08BEE95E09C
:101720000E94DC1680EEE82EFF24F39404E010E023
:101730002CE330E04CE150E062E070E08BEE95E0AD
:10174000EAD5E12C98E3F92E29813A814CE150E069
:1017500062E070E08BEE95E0DED58091300381335E
:1017600009F53092FE052092FD053092FC0520928D
:10177000FB05F2E0F093FF0524E330E03093F80539
:101780002093F7054CE050E05093FA054093F9059B
:1017900066E872E08BEE95E00E94DC1651E0509313
:1017A0002D0344C0823309F53092FE052092FD05D9
:1017B0003092FC052092FB0582E08093FF05E4E374
:1017C000F0E0F093F805E093F7052CE030E030937B
:1017D000FA052093F90568E872E08BEE95E00E9427
:1017E000DC1632E030932D0321C08033F9F43092BF
:1017F000FE052092FD053092FC052092FB0542E09B
:101800004093FF0584E390E09093F8058093F705FB
:10181000ECE0F0E0F093FA05E093F9056AE872E095
:101820008BEE95E00E94DC1610922D038091300320
:10183000853431F081E00E94E9141092300325CE06
:101840006AEF70E080E090E00E944614109230034E
:1018500060E070E08BEE95E00EDA1092F8051092E1
:10186000F7051092FA051092F90581E08093FF05C3
:1018700060E070E08BEE95E0FED98FEF9FEF9093E4
:10188000FE058093FD059093FC058093FB056CE8B5
:1018900072E08BEE95E00E94DC168BEE95E00E94E4
:1018A0003A1680912D03813081F480EE97E0909379
:1018B000FE058093FD059093FC058093FB0566E98A
:1018C00072E08BEE95E00E94DC1680912D03823051
:1018D00081F480EE97E09093FE058093FD05909350
:1018E000FC058093FB0561EA72E08BEE95E00E94B7
:1018F000DC1680912D03811110C080EE97E090934B
:10190000FE058093FD059093FC058093FB056BEA33
:1019100072E08BEE95E00E94DC1683E794E0ADD098
:10192000892B09F0B6DC809130038B34B1F768E87D
:1019300073E180E090E02A960FB6F894DEBF0FBE08
:10194000CDBFDF91CF911F910F91FF90EF90DF906E
:10195000CF90BF90AF909F908F907F906F905F904F
:101960004F903F902F9092C70F931F93CF93DF9389
:10197000FC01A685B7858D01005C1F4FE8018881B9
:10198000998101968F739927AD014E5B5F4FEA01F4
:101990002881398182179307D1F3E80128813981A1
:1019A000A20FB31F6C93A685B785A05CBF4F11969D
:1019B0009C938E93A689B7892C9181E090E0078C47
:1019C00002C0880F991F0A94E2F7822B8C9381E062
:1019D00081A30488F589E02D80818064808381E083
:1019E00090E0DF91CF911F910F910895FC0181A1AB
:1019F000882329F0A489B5898C9186FFFBCF11A299
:101A00000895FC01A485B585FD01E05CFF4F2081B0
:101A100031813296808191812817390779F0808150
:101A20009181A80FB91F8C91208131812F5F3F4F89
:101A30002F7333273183208390E008958FEF9FEF3A
:101A40000895DC011C96ED91FC911D97DF01A05CCF
:101A5000BF4F2D913C91119712968D919C911197AA
:101A60002817390739F08D919C91E80FF91F808173
:101A700090E008958FEF9FEF0895FC012485358550
:101A8000F901E05CFF4F80819181329620813181A4
:101A9000821B930B8F739927089587EC95E0EDDFF8
:101AA0008DE195E0EADF83E794E0E7DF89EC93E0FE
:101AB000E4CFFB01E05CFF4F208131812F5F3F4F7E
:101AC0002F733327DB01AE5BBF4F4D915C91241721
:101AD000350741F040815181DB01A40FB51F8C9384
:101AE0003183208308953FB7F89480913D0390910E
:101AF0003E03A0913F03B091400326B5A89B05C0CB
:101B00002F3F19F00196A11DB11D3FBFBA2FA92F7C
:101B1000982F8827820F911DA11DB11DBC01CD01F9
:101B200042E0660F771F881F991F4A95D1F70895E5
:101B30000895FC016370658B8481958126813781CE
:101B4000613039F0633029F09187808733872287AD
:101B50000895318720879387828708952F923F9237
:101B60004F925F926F927F928F929F92AF92BF92AD
:101B7000CF92DF92EF92FF920F931F93CF93DF9359
:101B8000CDB7DEB76C970FB6F894DEBF0FBECDBFF2
:101B90009C8F8B8F5B011A011F830E833701C982D3
:101BA000DC0158964D915C9159974115510509F00A
:101BB000E5C018968D919C911997681779070CF0DC
:101BC000CAC11A968D919C911B97281639060CF064
:101BD000C2C18C2C912CFB0136E0C39EE00DF11D9F
:101BE0001124FB87EA871E161F060CF0B4C1C4013E
:101BF00033E0880F991F3A95E1F79D878C87820D16
:101C0000931D181619060CF0A6C157968C918111D8
:101C100003C0203B08F02F5FAB8DBC8DED91FC9194
:101C200011970680F781E02DCD012A8F19952A8D15
:101C3000B5E02B9F90011124F5013596FF87EE87C3
:101C4000BB82AA822501A9014A195B09598B488BDD
:101C5000C10108969B8B8A8BE889F989E40DF51DF3
:101C6000E759FD4F9491988761013D822C82A885A8
:101C7000A0FF13C0AB8DBC8DED91FC91B981B1304B
:101C800031F40084F185E02D2E813F8116C002845D
:101C9000F385E02DEE80FF801AC0EE81FF816E1685
:101CA0007F06F1F0AB8DBC8DED91FC91B981B13027
:101CB00051F40084F185E02D9301A601B2018B8DD2
:101CC0009C8D19950DC00284F385E02D730184016C
:101CD00094014C815D816A817B818B8D9C8D1995EE
:101CE000E885E695E887FFEFCF1ADF0A2C813D8172
:101CF000280D391D3D832C834A895B89C416D5067E
:101D000009F0B5CF5FEF451A550A8A819B81880D8E
:101D1000991D9B838A83AE85BF854A165B0609F0B1
:101D20009BCFEE81FF816E167F0609F4F2C0EB8D2A
:101D3000FC8DA081B181F981F13079F4B5016B5F3F
:101D40007F4F1C96ED91FC911D97830128E030E0B8
:101D5000A1018B8D9C8D1995DCC06A857B856819E6
:101D600079091A96ED91FC911B9773010C851D85DD
:101D70009401A1018B8D9C8D1995CBC0FA013496ED
:101D80009491329765917491291BCB01B7E02B9FF9
:101D9000800D911D1124FA01259134913B8B2A8BE2
:101DA000FC01459154915B834A83FC013296C490B7
:101DB000319654915E87329614913196D4908981F0
:101DC000823058F0612E012E000C7708AD2D0D2CBD
:101DD000000CBB0BB987A88704C019861886612C34
:101DE000712CAB8DBC8DED91FC9111970680F78124
:101DF000E02DCD011995B9818B2E912C689CC001E5
:101E0000699C900D789C900D1124FC01EA0DFB1D3E
:101E1000FD87EC871C82712C612CE12F110FFF0BC9
:101E200095012E0F3F1F3B872A87AC0CB11CA501E3
:101E30004E0F5F1F5F8B4E8BC1018D0D911DD7FC27
:101E40009A95998F888F4E85641608F062C0862D0A
:101E500090E048855985480F591F489D9001499D3C
:101E6000300D589D300D1124D901A20DB31DB98B31
:101E7000A88BAA84BB844C845D84DC80BA85DB1A81
:101E8000E88DF98DE80FF91FFD8BEC8B8D2D8A0DF8
:101E90002E893F89A216B306B9F1877061F48A8151
:101EA0009B810196EA89FB89AA81BB81EA0FFB1F0E
:101EB00074909B838A8377FE20C0AB8DBC8DED919F
:101EC000FC91B981B13061F40084F185E02D2E815F
:101ED0003F814C895D89B5018B8D9C8D19950DC015
:101EE0000284F385E02DEE80FF808401940148890F
:101EF0005989B2018B8D9C8D1995770CEFEFAE1A35
:101F0000BE0A480C591CC2CF3C813C0D3C836394F3
:101F10009ACFAB8DBC8DED91FC9111970288F3891E
:101F2000E02DCD016C960FB6F894DEBF0FBECDBF8D
:101F3000DF91CF911F910F91FF90EF90DF90CF90A5
:101F4000BF90AF909F908F907F906F905F904F90D9
:101F50003F902F9019946C960FB6F894DEBF0FBE89
:101F6000CDBFDF91CF911F910F91FF90EF90DF9048
:101F7000CF90BF90AF909F908F907F906F905F9029
:101F80004F903F902F900895AF92BF92CF92EF92D3
:101F9000FF920F931F93CF93DF93EC01262F888D31
:101FA000998D009709F03FC06A3059F41D861C8650
:101FB0002C898E859F8538E0239F800D911D1124EB
:101FC00040C06D3009F4A8C08E898823C1F03C89D7
:101FD0008C859D8546E0349F800D911D1124488598
:101FE0005985481759075CF41D861C868E859F8588
:101FF00048E0349F800D911D11249F878E87EA88C9
:10200000FB88088919894E855F856C857D85CC881C
:10201000CE01A4DD2C898C859D8536E0239F800D23
:10202000911D112442C06A3079F41D861C862C89CA
:10203000FC013696E4918E859F852E9F800D911D23
:1020400011249F878E8768C06D3009F465C0FC013C
:1020500034963491631708F45FC03196E491E61723
:1020600008F45AC0FC013296A590B490462F50E077
:10207000431B510937E0349FB001359F700D112487
:10208000A60EB71EF501329634913196E4913323B2
:1020900011F0E1110DC0F5013496E4912C898C8585
:1020A0009D85E29F800D911D11249D878C8734C0F2
:1020B000F501359644915E89552311F16C89E32F22
:1020C000F0E0E40FF11D47FDFA956E9FD0016F9F80
:1020D000B00D11244C855D854A0F5B1FE885F9859D
:1020E000E417F5076CF41D861C86FC013696E49116
:1020F0008E859F856E9F800D911D11249F878E87F1
:10210000EA88FB88088919894E855F856C857D85FD
:10211000CC88CE0123DDBFCF81E090E0DF91CF916D
:102120001F910F91FF90EF90CF90BF90AF900895C7
:102130006F927F928F929F92AF92BF92CF92DF92D7
:10214000EF92FF920F931F93CF93DF93EC014B011C
:102150005A0169013801E881F9810680F781E02D93
:102160001995E881F9810684F785E02D87019601AC
:10217000A501B401CE011995E881F981A501460DAB
:10218000571D415051090684F785E02D9601B40191
:10219000CE011995E881F9810484F585E02D93013C
:1021A000A501B401CE011995E881F981C80CD91CAB
:1021B000B601615071090484F585E02D9301A501F4
:1021C000CE011995E881F9810288F389E02DCE01CD
:1021D000DF91CF911F910F91FF90EF90DF90CF9003
:1021E000BF90AF909F908F907F906F901994CF92F7
:1021F000DF92EF92FF920F931F93CF93DF9300D064
:1022000000D0CDB7DEB76C01DC01ED91FC91621717
:10221000730789F4041715072CF4942F852FA80150
:10222000092F182F041B150B98012F5F3F4F008CAF
:10223000F18DE02D12C04017510709F52617370719
:102240002CF4962F872FB901292F382F261B370BF7
:102250002F5F3F4F028CF38DE02D8701C60119954A
:1022600026960FB6F894DEBF0FBECDBFDF91CF919B
:102270001F910F91FF90EF90DF90CF90089506800F
:10228000F781E02D2D833E834B835C8369837A83C2
:102290001995D601ED91FC910088F189E02D2D81F1
:1022A0003E814B815C8169817A81C6011995D60195
:1022B000ED91FC910288F389E02DC60126960FB6B8
:1022C000F894DEBF0FBECDBFDF91CF911F910F916C
:1022D000FF90EF90DF90CF901994EF92FF920F93C1
:1022E0001F93DC01ED91FC9111971A960D911C91B1
:1022F0001B9718962D913C911997048CF58DE02D24
:102300007B0140E050E060E070E019951F910F9173
:10231000FF90EF9008954F925F926F927F928F920D
:102320009F92AF92BF92CF92DF92EF92FF920F9364
:102330001F93CF93DF931F921F92CDB7DEB76C012F
:102340005A0139014801DC01ED91FC910680F781C9
:10235000E02D69837A8319956981462E7A81572EFB
:10236000640C751CD601ED91FC91461457046CF475
:102370000484F585E02D87019401A501B201C60111
:102380001995BFEF4B1A5B0AEDCF0288F389E02D58
:10239000C6010F900F90DF91CF911F910F91FF9089
:1023A000EF90DF90CF90BF90AF909F908F907F90F5
:1023B0006F905F904F901994AF92BF92CF92DF923F
:1023C000EF92FF920F931F93CF93DF9300D01F9252
:1023D000CDB7DEB75C016901DC01ED91FC910680AF
:1023E000F781E02D4B835C8369837A831995D5014E
:1023F000ED91FC9169817A819B012C0D3D1D21504D
:1024000031090088F189E02D78014B815C818A01D6
:10241000C5011995D501ED91FC910288F389E02D54
:10242000C5010F900F900F900F90DF91CF911F91EA
:102430000F91FF90EF90DF90CF90BF90AF901994E5
:10244000AF92BF92CF92DF92EF92FF920F931F93C2
:10245000CF93DF9300D01F92CDB7DEB75C01690147
:10246000DC01ED91FC910680F781E02D4B835C83CC
:1024700069837A831995D501ED91FC914B815C813B
:10248000C40ED51EB1E0CB1AD1080088F189E02D29
:102490007801860169817A819B01C5011995D50171
:1024A000ED91FC910288F389E02DC5010F900F900A
:1024B0000F900F90DF91CF911F910F91FF90EF90B0
:1024C000DF90CF90BF90AF9019940895EF92FF9254
:1024D0000F931F93DC01ED91FC91048CF58DE02DA1
:1024E00019951F910F91FF90EF9008950F931F93EF
:1024F000DC01ED91FC91028CF38DE02D19951F917B
:102500000F9108951F920F920FB60F9211240BB6E0
:102510000F922F933F938F939F93EF93FF9320916D
:102520008103309182038091830390918403281763
:10253000390731F4809131018F7D8093310114C0CE
:10254000E0918303F0918403EF5BFC4F2081809145
:1025500083039091840301968F739927909384034A
:102560008093830320933601FF91EF919F918F9188
:102570003F912F910F900BBE0F900FBE0F901F90A9
:1025800018951F920F920FB60F9211240BB60F924F
:102590002F933F938F939F93EF93FF9320912B045F
:1025A00030912C0480912D0490912E042817390726
:1025B00031F48091D1008F7D8093D10014C0E091DF
:1025C0002D04F0912E04E551FC4F208180912D04C3
:1025D00090912E0401968F73992790932E048093E7
:1025E0002D042093D600FF91EF919F918F913F9101
:1025F0002F910F900BBE0F900FBE0F901F9018954C
:102600001F920F920FB60F9211240BB60F922F93B9
:102610003F938F939F93EF93FF932091D504309135
:10262000D6048091D7049091D8042817390731F443
:102630008091C9008F7D8093C90014C0E091D704B8
:10264000F091D804EB56FB4F20818091D7049091F4
:10265000D80401968F7399279093D8048093D70458
:102660002093CE00FF91EF919F918F913F912F91F9
:102670000F900BBE0F900FBE0F901F9018951F92DA
:102680000F920FB60F9211240BB60F922F933F9318
:102690008F939F93EF93FF9320917F053091800557
:1026A00080918105909182052817390731F4809136
:1026B000C1008F7D8093C10014C0E0918105F0912D
:1026C0008205E15CFA4F208180918105909182051D
:1026D00001968F73992790938205809381052093AB
:1026E000C600FF91EF919F918F913F912F910F9095
:1026F0000BBE0F900FBE0F901F9018951F920F9258
:102700000FB60F9211240BB60F922F933F934F9356
:102710005F936F937F938F939F93AF93BF93EF9349
:10272000FF938091300182FD06C08091360165E8FB
:1027300073E0BFD902C080913601FF91EF91BF9144
:10274000AF919F918F917F916F915F914F913F9149
:102750002F910F900BBE0F900FBE0F901F901895EA
:102760001F920F920FB60F9211240BB60F922F9358
:102770003F934F935F936F937F938F939F93AF9309
:10278000BF93EF93FF938091D00082FD06C08091AC
:10279000D6006FE274E08DD902C08091D600FF911F
:1027A000EF91BF91AF919F918F917F916F915F91C9
:1027B0004F913F912F910F900BBE0F900FBE0F9036
:1027C0001F9018951F920F920FB60F9211240BB6FF
:1027D0000F922F933F934F935F936F937F938F93BA
:1027E0009F93AF93BF93EF93FF938091C80082FDB7
:1027F00006C08091CE0069ED74E05BD902C0809183
:10280000CE00FF91EF91BF91AF919F918F917F91FA
:102810006F915F914F913F912F910F900BBE0F9051
:102820000FBE0F901F9018951F920F920FB60F9228
:1028300011240BB60F922F933F934F935F936F9397
:102840007F938F939F93AF93BF93EF93FF93809169
:10285000C00082FD06C08091C60063E875E029D9FA
:1028600002C08091C600FF91EF91BF91AF919F91FF
:102870008F917F916F915F914F913F912F910F9029
:102880000BBE0F900FBE0F901F901895CF92DF9246
:10289000EF92FF92CF93DF936B017C0124D9EB0180
:1028A000C114D104E104F10471F01DD96C1B7D0B3E
:1028B000683E7340A8F381E0C81AD108E108F10826
:1028C000C851DC4FEDCFDF91CF91FF90EF90DF90BB
:1028D000CF9008952FB7F8946091390370913A031F
:1028E00080913B0390913C032FBF08951F920F925C
:1028F0000FB60F9211242F933F938F939F93AF9313
:10290000BF938091390390913A03A0913B03B0911A
:102910003C033091380323E0230F2D3720F4019638
:10292000A11DB11D05C026E8230F0296A11DB11DF2
:10293000209338038093390390933A03A0933B0389
:10294000B0933C0380913D0390913E03A0913F03DF
:10295000B09140030196A11DB11D80933D0390935A
:102960003E03A0933F03B0934003BF91AF919F916B
:102970008F913F912F910F900FBE0F901F90189540
:10298000CF92DF92EF92FF920F931F93CF93DF933B
:102990006C01EB017B01E40EF51E00E010E0CE15AA
:1029A000DF0561F06991D601ED91FC910190F08114
:1029B000E02DC6011995080F191FF1CFC801DF914D
:1029C000CF911F910F91FF90EF90DF90CF900895DE
:1029D0000895CF9340910506509106062091070671
:1029E0003091080642175307C1F1C82F81E0809348
:1029F0000B0680910B06813031F461E070E080E0DD
:102A000090E044DFF6CFC13041F580910A06E091B5
:102A10000A06F0E0EE0FFF1FEB5FF94F90910906F9
:102A20002091EF053091F005929FA001939F500DEA
:102A300011249A01220F331F420F531FA1E0B0E06F
:102A4000A81BB109AA0FBB1FAB5FB94F6D917C9159
:102A500080819181CF910C947224CF91089590E060
:102A6000FC01ED57F84F2491FC01ED51F84F849192
:102A7000882399F090E0880F991FFC01E759F84FDF
:102A8000A591B491FC01E753F84F859194918FB7CC
:102A9000F894EC91E22BEC938FBF0895FC01A4898C
:102AA000B58981E090E09C0100A002C0220F331F95
:102AB0000A94E2F72C93A089B1891C92A289B38968
:102AC0002FEC2C9311A2A689B7894C919C01048C00
:102AD00002C0220F331F0A94E2F7242B2C93A689FD
:102AE000B7894C919C01058C02C0220F331F0A94B8
:102AF000E2F7242B2C93A689B7894C919C01068C74
:102B000002C0220F331F0A94E2F7242B2C93A689CC
:102B1000B7892C91078C02C0880F991F0A94E2F79D
:102B2000809582238C9308950F931F93D3DE609337
:102B30007B0470937C0480937D0490937E04E091E9
:102B40007304F09174040680F781E02D83E794E02C
:102B5000199597FF1EC0BEDE00917B0410917C0486
:102B600020917D0430917E04DC01CB01801B910B10
:102B7000A20BB30B00917704109178042091790493
:102B800030917A0480179107A207B307C0F28FEF44
:102B90009FEF1F910F9108950F931F93CF93DF9392
:102BA000EC0188819981009729F02A813B812617C1
:102BB000370788F48B016F5F7F4F0E948E23009749
:102BC00061F0998388831B830A832C813D81232BA9
:102BD00011F4FC01108281E001C080E0DF91CF910F
:102BE0001F910F910895EF92FF920F931F93CF9330
:102BF000DF93EC01198218821B821A821D821C82CB
:102C00001E826115710541F18B01FB0101900020CD
:102C1000E9F731977F01E61AF70AB701BDDF28818E
:102C2000398181110DC02115310519F0C9010E94AA
:102C3000F622198218821D821C821B821A820CC005
:102C4000FD82EC82B801C901DF91CF911F910F91F4
:102C5000FF90EF900C948224DF91CF911F910F9100
:102C6000FF90EF900895DC01ED91FC910190F081CF
:102C7000E02D19940F931F93CF93DF93EC016DE038
:102C8000F2DF8C016AE0CE01EEDF800F911FDF9151
:102C9000CF911F910F9108956115710579F0FB0196
:102CA00001900020E9F73197AF01461B570BDC017B
:102CB000ED91FC910280F381E02D199480E090E089
:102CC00008958F929F92AF92BF92EF92FF920F93CF
:102CD0001F93CF93DF93CDB7DEB7A1970FB6F894CC
:102CE000DEBF0FBECDBF162F042F19A2423008F44D
:102CF0000AE07E0121E2E20EF11C802E912CA12C33
:102D0000B12C612FA50194010E94FC1F029F101994
:102D1000112481E0E81AF1081A3014F4105D01C0A2
:102D2000195CF7011083122F732FCA01232B242B58
:102D3000252B39F7B7018BEE95E0AEDFA1960FB6E4
:102D4000F894DEBF0FBECDBFDF91CF911F910F91E1
:102D5000FF90EF90BF90AF909F908F900895CF928B
:102D6000DF92EF92FF92CF93DF936C01990FEE0801
:102D7000FF08F7FE17C06DE28BEE95E074DFEC0103
:102D800066277727CB016C197D098E099F094AE0D8
:102D900098DF8C0F9D1FDF91CF91FF90EF90DF9018
:102DA000CF9008954AE0C701B601DF91CF91FF901F
:102DB000EF90DF90CF9085CF0F931F93CF93DF934A
:102DC000EC016ADF8C01CE0155DF800F911FDF918E
:102DD000CF911F910F910895CF93DF93CDB7DEB7B9
:102DE00068970FB6F894DEBF0FBECDBF789484B558
:102DF000826084BD84B5816084BD85B5826085BDF7
:102E000085B5816085BD80916E00816080936E0084
:102E10001092810080918100826080938100809176
:102E20008100816080938100809180008160809327
:102E300080008091B10084608093B1008091B000E7
:102E400081608093B00080919100826080939100B6
:102E500080919100816080939100809190008160C9
:102E6000809390008091A10082608093A100809166
:102E7000A10081608093A1008091A0008160809377
:102E8000A000809121018260809321018091210125
:102E900081608093210180912001816080932001D5
:102EA00080917A00846080937A0080917A008260B9
:102EB00080937A0080917A00816080937A0080917B
:102EC0007A00806880937A001092C10087EC95E0C8
:102ED000E5DD88EE93E0A0E0B0E080937704909386
:102EE0007804A0937904B0937A0483E794E0D6DD64
:102EF00068EC72E087EC95E05FDF10920A06809143
:102F00000A06E1E0F0E0E81BF109EE0FFF1FEB5FBE
:102F1000F94F8081918190932906809328068BEE4A
:102F200095E090932F0380932E0380910C0697DDFC
:102F300020910C0630E0F901EA5FFE4F8491F9011F
:102F4000ED57F84F4491F901ED51F84F24912223A8
:102F500009F463C0882309F451C090E0FC01319763
:102F6000E131F10508F04AC08827EE58FF4F8F4F36
:102F70000C943A20809180008F7703C0809180006C
:102F80008F7D809380003AC084B58F7702C084B56E
:102F90008F7D84BD33C08091B0008F7703C0809156
:102FA000B0008F7D8093B00029C0809190008F7712
:102FB00007C0809190008F7D03C080919000877F33
:102FC000809390001BC08091A0008F7707C08091F4
:102FD000A0008F7D03C08091A000877F8093A00018
:102FE0000DC0809120018F7707C0809120018F7DD7
:102FF00003C080912001877F80932001E22FF0E0C1
:10300000EE0FFF1FE753F84FA591B4918FB7F894D7
:10301000EC9140954E234C938FBF80910D061FDDA0
:10302000E0911A06F0911B0690818091140680951C
:103030008923808380910E0612DDE0911C06F091B9
:103040001D06908180911506892B808380910F0643
:1030500006DDE0911E06F0911F0690818091160614
:1030600080958923808380911006F9DCE091200609
:10307000F0912106908180911706809589238083A5
:1030800080911106ECDCE0912206F09123069081FC
:103090008091180680958923808380910906893064
:1030A00068F080911206DBDCE0912406F0912506A1
:1030B0009081809119068095892380838CEF81B956
:1030C00012B882E08093800089E18093810084E6D9
:1030D00090E0909387008093860080916F008160DC
:1030E00080936F00789460E070E08BEE95E00E9432
:1030F0003B0681E08093FF051092010688E090E096
:103100009093F8058093F7051092FA051092F9054F
:1031100005EB12E0F12C8F2D0E94C1089093FE0563
:103120008093FD059093FC058093FB05D8016D917C
:103130008D018BEE95E097DD64E670E080E090E035
:10314000A5DBF394B8E0FB12E6CF68EC70E080E01A
:1031500090E09CDB82E090E09093F8058093F70587
:1031600088E090E09093FA058093F9050DEB12E06A
:103170008F2D0E94C1089093FE058093FD059093CA
:10318000FC058093FB05F80161918F018BEE95E0C2
:103190006ADD64E670E080E090E078DBF394F2E1D1
:1031A000FF12E6CF68EC70E080E090E06FDB8BEE22
:1031B00095E060DD8FEF9FEF9093FE058093FD0516
:1031C0009093FC058093FB056EEC72E08BEE95E02E
:1031D000F3DD68EC70E080E090E058DB80E098EF91
:1031E0009093FE058093FD059093FC058093FB056D
:1031F00069E58BEE95E037DD64E670E080E090E015
:1032000045DB80E89CEF9093FE058093FD0590934D
:10321000FC058093FB056FE48BEE95E024DD64E60E
:1032200070E080E090E032DB8EE090E09093F80573
:103230008093F70508E110E01093FA050093F90573
:1032400080EE9FEF9093FE058093FD059093FC0523
:103250008093FB0569E58BEE95E005DD64E670E0A3
:1032600080E090E013DB80EE97E99093FE05809379
:10327000FD059093FC058093FB0561E48BEE95E0E2
:10328000F2DC64E670E080E090E000DB80EE97E046
:103290009093FE058093FD059093FC058093FB05BC
:1032A00062E58BEE95E0DFDC64E670E080E090E0C4
:1032B000EDDA8FEF97E09093FE058093FD059093F4
:1032C000FC058093FB0569E48BEE95E0CCDC64E6BD
:1032D00070E080E090E0DADA8FE994E09093FE0508
:1032E0008093FD059093FC058093FB0563E58BEED1
:1032F00095E0B9DC64E670E080E090E0C7DA8FE149
:1033000090E09093FE058093FD059093FC058093DB
:10331000FB058EE290E09093F8058093F7051093FB
:10332000FA050093F90566E58BEE95E09CDC64E612
:1033300070E080E090E0AADA8FE190E99093FE05DA
:103340008093FD059093FC058093FB0560E38BEE75
:1033500095E089DC64E670E080E090E097DA82E155
:1033600098EF9093FE058093FD059093FC05809364
:10337000FB0561E38BEE95E076DC64E670E080E0CF
:1033800090E084DA68EB7BE080E090E07FDA60E058
:1033900070E08BEE95E00E943B061092010681E002
:1033A0008093FF050E94110960E070E08BEE95E0CC
:1033B0000E943B0681E08093FF0523E632E03E87D2
:1033C0002D8762E072E0788F6F8B81E092E09A83C4
:1033D0008983A4E0B2E0B887AF83E3E0F2E0FE8344
:1033E000ED83ED85FE8525903490AF89B88D8C9165
:1033F000E82F880FFF0BFC87EB87A981BA814C90DF
:10340000042C000C5508AF014550510981012BE0F7
:1034100030E0B2018BEE95E00E944804C12CD12C23
:1034200088248394912C95E0E92EF12CE6EFFFEFB0
:10343000FA87E9872CEF622E77247A943FEFC31A3C
:10344000D30A42E0840E911C680C791C5701AA0C27
:10345000BB1C6FEFA61AB60AB2016C0D7D1D81016F
:1034600095018B859C858E199F099C838B83AC016C
:103470008BEE95E00E944804AB85BC85AC19BD0974
:10348000B88BAF879401AD01B2016E0D7F1D8BEE3D
:1034900095E00E944804B2016C197D0995014B81A9
:1034A0005C818BEE95E00E94480494014F85588919
:1034B000B2016E197F098BEE95E00E944804CE148C
:1034C000DF0474F477FCBACFF1E0EF1AF108298534
:1034D0003A852E5F3F4F3A872987620E731EAECF23
:1034E000E981FA819081AD81BE818C91890F8083C1
:1034F000EF89F88D9081AF81B8858C91890F808399
:10350000E981FA818081882309F438C3082E000CF0
:10351000990B2091F3053091F40521503109821760
:10352000930709F42BC3AF89B88D8C91882309F4D4
:103530002BC3082E000C990B2091F5053091F60550
:10354000215031098217930709F41EC3ED85FE85CA
:103550003296FE87ED872F89388D2C5F3F4F388F4D
:103560002F8B69817A816C5F7F4F7A8369838F812A
:103570009885049698878F83AD81BE811496BE830B
:10358000AD832E50324009F02CCF609134037091FE
:103590003503072E000C880B990B20E036E040E045
:1035A00050E04CD597FF03C07A5F8F4F9F4FA62FF7
:1035B000C72ED82EE92EFF24E7FCFA94E2E0CE16BF
:1035C000D104E104F10401F17CF4C114D104E1045B
:1035D000F10421F1CA94CD28CE28CF28D9F4862F22
:1035E000809560E0AFEF1CC033E0C316D104E10466
:1035F000F10461F044E0C416D104E104F10451F493
:10360000862F6FEFA0E00CC0AFEF02C0A0956FEF68
:1036100080E006C06A2F6095A0E001C060E08FEFF7
:103620002FEF30E0A901461B5109B901681B710950
:103630006095698B1A8A89899A89845B9E4FFC01FF
:1036400084912A1B3109F22FF095FB8B1C8AEB89A0
:10365000FC89E45BFE4F9491242F20952D8B1E8ACC
:10366000ED89FE89E45BFE4FE4912E2F30E060E8A7
:10367000969FA0011124682F70E0762F662772951F
:10368000707F642B752BA901440F551F462B572BB8
:10369000A3E035952795AA95E1F7242B352B887063
:1036A000482F50E0542F4427422B532B9C7078E036
:1036B000979F90011124422B532B5093FE0540936A
:1036C000FD055093FC054093FB052091000280917D
:1036D000E9059091EA059093F8058093F705822F0C
:1036E000022E000C990B9093FA058093F9058091B6
:1036F000330381114FC22F5F20930002809100029B
:10370000893124F081E08093330304C0823014F4C3
:1037100010923303ECE4F2E064918F010F5F1F4FCE
:10372000662361F0E091EB05F091EC050190F081EA
:10373000E02D8BEE95E01995F801EECF8091E9052B
:103740009091EA0501979093EA058093E9058D38F9
:103750009F4F44F48091F3059091F4059093EA050E
:103760008093E90580913403909135039C01295F92
:103770003F4F2115B6E03B072CF4309335032093DF
:10378000340306C0895F95409093350380933403DA
:1037900065E070E080E090E079D880E01AD983E7B6
:1037A00094E00E943D0D892B11F00E9449098091FF
:1037B00030038A3409F0DFC11092300360E070E01A
:1037C0008BEE95E00E943B061092F8051092F705EB
:1037D0001092FA051092F90580E098EF9093FE059B
:1037E0008093FD059093FC058093FB0569ED72E0E5
:1037F0008BEE95E0E1DA8BEE95E03CDA80EE97E037
:103800009093FE058093FD059093FC058093FB0546
:1038100062EE72E08BEE95E0CFDA5CD82B013C01D2
:10382000212C312C99249394C12C58EFD52E83E769
:1038300094E00E943D0D892B11F00E94490980916E
:103840003003813439F560E070E08BEE95E00E9442
:103850003B061092F8051092F7051092FA051092A7
:10386000F905EFE1F0E0F093FE05E093FD05F0933C
:10387000FC05E093FB0568EE72E08BEE95E09CDAC8
:1038800063EF72E08BEE95E097DA69EF72E08BEE12
:1038900095E092DA80913003823409F44DC085338B
:1038A00009F44AC017D8DC01CB0184199509A6098F
:1038B000B709893E9340A105B10580F151012FEF71
:1038C000A21AB20A67E370E07093F8056093F705F7
:1038D0008CE090E09093FA058093F9059092FF05B3
:1038E000E12CF12C08E010E028E030E04CE050E062
:1038F0008BEE95E00E948B11D092FE05C092FD05E3
:10390000D092FC05C092FB0589E090E082199309F2
:1039100026DA0E946A142B013C0115019BE029164E
:1039200031044CF4109230036AE070E080E090E0E3
:103930000E9446147CCF80E080933703823409F0E4
:1039400013C160E070E08BEE95E00E943B060E94A0
:103950001C090E946A142B013C01C12CD12CAFEF31
:10396000BFEFBA83A98336E3232E312CA12C48E381
:10397000B42E0E944909809130038D3409F05BC058
:10398000E981FA813196FA83E983E330F10534F471
:10399000E130F105D9F0329779F102C01A8219822B
:1039A000E12CF12C08E010E020E430E048E150E0A8
:1039B00060E070E08BEE95E00E949810EE24EA94AF
:1039C000FE2C20E430E048E050E02BC0E12CF12C4C
:1039D00008E010E020E430E048E050E060E070E013
:1039E0008BEE95E00E949810EE24EA94FE2C20E4E1
:1039F00030E040E150E015C0E12CF12C08E010E08F
:103A000020E430E040E150E060E070E08BEE95E0D3
:103A10000E949810EE24EA94FE2C20E430E048E165
:103A200050E060E070E08BEE95E00E9498100E94FC
:103A30001C09C12CD12C809130038D3641F4298191
:103A40003A812F3F3F4F09F443C0898142C060E370
:103A5000609330030E946A14DC01CB01841995093C
:103A6000A609B709893E9340A105B10508F481CFA5
:103A700046018FEF881A980A3092F8052092F705D0
:103A80001092FA051092F90591E09093FF05E12C50
:103A9000F12C08E010E028E030E040E050E066E380
:103AA00070E08BEE95E00E948B11B092FE05A09223
:103AB000FD05B092FC05A092FB0589E090E08C1911
:103AC0009D094DD90E946A142B013C01640151CF1C
:103AD00080E08093360360E070E08BEE95E00E941A
:103AE0003B061092F8051092F7051092FA05109215
:103AF000F9058FE198EF9093FE058093FD05909373
:103B0000FC058093FB058091360381110AC064E0B7
:103B100073E08BEE95E050D969E073E08BEE95E0B1
:103B20004BD980913603813051F464E073E08BEE21
:103B300095E042D960E173E08BEE95E03DD980914C
:103B40003603823051F464E073E08BEE95E034D9B3
:103B500069E173E08BEE95E02FD960ED77E080E0CE
:103B600090E00E94461402C0853329F40E94050AA1
:103B70001092300319CC0E944D0D16CCAD81BE8140
:103B80008C9181958C93CFCCEF81F8858081819544
:103B90008083DCCC2150B0CDCF92DF92EF92FF92A8
:103BA000CF931092CA051092C90568EEC62E63E045
:103BB000D62EE12CF12CC092CB05D092CC05E09210
:103BC000CD05F092CE0547E152E05093C8054093F1
:103BD000C70583E895E09093D4058093D3058FE3E0
:103BE00095E09093D6058093D50585EC90E0909371
:103BF000D8058093D70584EC90E09093DA05809304
:103C0000D90580EC90E09093DC058093DB0581EC96
:103C100090E09093DE058093DD0582EC90E0909338
:103C2000E0058093DF0586EC90E09093E2058093B9
:103C3000E10534E03093E305C3E0C093E40527E0F9
:103C40002093E50595E09093E60581E08093E705F4
:103C50001092200510921F05C0922105D0922205D6
:103C6000E0922305F092240550931E0540931D0514
:103C700069ED74E070932A056093290565E974E0A5
:103C800070932C0560932B056DEC70E070932E05FE
:103C900060932D056CEC70E07093300560932F05F8
:103CA00068EC70E0709332056093310569EC70E068
:103CB00070933405609333056AEC70E070933605B9
:103CC000609335056EEC70E07093380560933705AE
:103CD00030933905C0933A0520933B0590933C05FA
:103CE00080933D051092760410927504C09277047B
:103CF000D0927804E0927904F0927A04509374049C
:103D0000409373046FE274E07093800460937F04C7
:103D10006BEE73E0709382046093810465ED70E054
:103D2000709384046093830464ED70E07093860460
:103D30006093850460ED70E070938804609387045D
:103D400061ED70E070938A046093890462ED70E025
:103D500070938C0460938B0466ED70E070938E0416
:103D600060938D0430938F04C0939004209391044A
:103D700090939204809393041092CC031092CB03FF
:103D8000C092CD03D092CE03E092CF03F092D00345
:103D90005093CA034093C90345E853E05093D603B8
:103DA0004093D50341E453E05093D8034093D703A5
:103DB00045E351E05093DA034093D90344E351E0E3
:103DC0005093DC034093DB0340E351E05093DE0368
:103DD0004093DD0341E351E05093E0034093DF0360
:103DE00042E351E05093E2034093E10346E351E0A4
:103DF0005093E4034093E3033093E503C093E60359
:103E00002093E7039093E8038093E9031092EE0573
:103E10001092ED0540E450E05093F0054093EF051B
:103E200020E230E03093F2052093F1055093F40541
:103E30004093F3053093F6052093F50510920006A4
:103E40001092F8051092F7051092FA051092F905F4
:103E50008093FF052FEF3FEF3093FE052093FD0584
:103E60003093FC052093FB05809301061092020617
:103E7000109204061092030687E292E09093EC05FC
:103E80008093EB0580E18093090680E09CE019D3E4
:103E90009093060680930506009709F48BC020E0F6
:103EA0003CE0FC01A901119241505040E1F7909390
:103EB00008068093070686E380930F0687E38093C6
:103EC000100688E3809311068BE080930C0680E255
:103ED00080930D0682E280930E06EEE8F7E0E4910F
:103EE000E0931306E3E0F8E0E491F0E0EE0FFF1F4B
:103EF000E753F84F8591949190931B0680931A068F
:103F0000E3EAF7E0E491E0931406E5E0F8E0E491F9
:103F1000F0E0EE0FFF1FE753F84F859194919093D7
:103F20001D0680931C06E5EAF7E0E491E093150690
:103F3000E9E1F8E0E491F0E0EE0FFF1FE753F84FFE
:103F40008591949190931F0680931E06E9EBF7E00C
:103F5000E491E0931606EAE1F8E0E491F0E0EE0F78
:103F6000FF1FE753F84F859194919093210680931A
:103F70002006EAEBF7E0E491E0931706EBE1F8E0C6
:103F8000E491F0E0EE0FFF1FE753F84F8591949115
:103F90009093230680932206EBEBF7E0E491E09305
:103FA0001806C09327068FE08093260610920B0612
:103FB00010920A0689E380931206ECE1F8E0E4919E
:103FC000F0E0EE0FFF1FE753F84F85919491909327
:103FD000250680932406ECEBF7E0E491E0931906C4
:103FE00080E490E09093EA058093E905CF91FF90FB
:103FF000EF90DF90CF900895A1E21A2EAA1BBB1B71
:10400000FD010DC0AA1FBB1FEE1FFF1FA217B307A4
:10401000E407F50720F0A21BB30BE40BF50B661FBA
:10402000771F881F991F1A9469F76095709580957E
:1040300090959B01AC01BD01CF010895052E97FB22
:1040400016F400940FD057FD05D0D6DF07FC02D040
:1040500046F408C050954095309521953F4F4F4FFD
:104060005F4F089590958095709561957F4F8F4F24
:104070009F4F0895EE0FFF1F881F8BBF0790F6918B
:10408000E02D19945058BB27AA270ED075C166D1D0
:1040900030F06BD120F031F49F3F11F41EF45BC17E
:1040A0000EF4E095E7FB51C1E92F77D180F3BA1701
:1040B000620773078407950718F071F49EF58FC1A6
:1040C0000EF4E0950B2EBA2FA02D0B01B901900133
:1040D0000C01CA01A0011124FF27591B99F0593F77
:1040E00050F4503E68F11A16F040A22F232F342FBF
:1040F0004427585FF3CF469537952795A795F0400D
:104100005395C9F77EF41F16BA0B620B730B840B21
:10411000BAF09150A1F0FF0FBB1F661F771F881FD9
:10412000C2F70EC0BA0F621F731F841F48F4879531
:1041300077956795B795F7959E3F08F0B3CF939520
:10414000880F08F09927EE0F979587950895D9D095
:1041500008F481E008950CD00FC107D140F0FED0E3
:1041600030F021F45F3F19F0F0C0511139C1F3C0B4
:1041700014D198F39923C9F35523B1F3951B550B2B
:10418000BB27AA2762177307840738F09F5F5F4F2A
:10419000220F331F441FAA1FA9F333D00E2E3AF06B
:1041A000E0E830D091505040E695001CCAF729D085
:1041B000FE2F27D0660F771F881FBB1F26173707D4
:1041C0004807AB07B0E809F0BB0B802DBF01FF2704
:1041D00093585F4F2AF09E3F510568F0B6C000C16A
:1041E0005F3FECF3983EDCF3869577956795B7953E
:1041F000F7959F5FC9F7880F911D9695879597F959
:104200000895E1E0660F771F881FBB1F62177307D1
:104210008407BA0720F0621B730B840BBA0BEE1FE6
:1042200088F7E095089504D06894B111D9C0089535
:10423000BCD088F09F5790F0B92F9927B751A0F0C4
:10424000D1F0660F771F881F991F1AF0BA95C9F72A
:1042500012C0B13081F0C3D0B1E00895C0C0672F63
:10426000782F8827B85F39F0B93FCCF386957795DA
:104270006795B395D9F73EF49095809570956195C3
:104280007F4F8F4F9F4F0895E89409C097FB3EF4EE
:1042900090958095709561957F4F8F4F9F4F992393
:1042A000A9F0F92F96E9BB279395F6958795779511
:1042B0006795B795F111F8CFFAF4BB0F11F460FFD1
:1042C0001BC06F5F7F4F8F4F9F4F16C0882311F029
:1042D00096E911C0772321F09EE8872F762F05C03D
:1042E000662371F096E8862F70E060E02AF09A95D8
:1042F000660F771F881FDAF7880F9695879597F9CD
:104300000895990F0008550FAA0BE0E8FEEF161666
:104310001706E807F907C0F012161306E407F507B9
:1043200098F0621B730B840B950B39F40A2661F02D
:10433000232B242B252B21F408950A2609F4A140D0
:10434000A6958FEF811D811D089597F99F6780E8DD
:1043500070E060E008959FEF80EC089500240A94D7
:104360001616170618060906089500240A94121650
:104370001306140605060895092E0394000C11F483
:10438000882352F0BB0F40F4BF2B11F460FF04C030
:104390006F5F7F4F8F4F9F4F089557FD9058440F89
:1043A000551F59F05F3F71F04795880F97FB991F94
:1043B00061F09F3F79F08795089512161306140651
:1043C000551FF2CF4695F1DF08C0161617061806DE
:1043D000991FF1CF86957105610508940895E894B9
:1043E000BB2766277727CB0197F908958ADF08F462
:1043F0008FEF08950BD0C0CFB1DF28F0B6DF18F0F3
:10440000952309F0A2CFA7CF1124EACFC6DFA0F3EE
:10441000959FD1F3950F50E0551F629FF001729F59
:10442000BB27F00DB11D639FAA27F00DB11DAA1F78
:10443000649F6627B00DA11D661F829F2227B00DC5
:10444000A11D621F739FB00DA11D621F839FA00D50
:10445000611D221F749F3327A00D611D231F849FA0
:10446000600D211D822F762F6A2F11249F575040F7
:104470008AF0E1F088234AF0EE0FFF1FBB1F661F92
:10448000771F881F91505040A9F79E3F510570F04B
:104490005CCFA6CF5F3FECF3983EDCF38695779533
:1044A0006795B795F795E7959F5FC1F7FE2B880F46
:1044B000911D9695879597F9089523DF880B990BA1
:1044C0000895CF93DF938230910510F482E090E05D
:1044D000E0912C06F0912D0620E030E0C0E0D0E025
:1044E000309711F14081518148175907C0F04817A2
:1044F000590761F482819381209719F09B838A8305
:104500002BC090932D0680932C0626C021153105D3
:1045100019F04217530718F49A01BE01DF01EF01A9
:104520000280F381E02DDCCF2115310509F1281B34
:10453000390B2430310590F412968D919C9113978C
:104540006115710521F0FB019383828304C0909370
:104550002D0680932C06FD01329644C0FD01E20F2A
:10456000F31F81939193225031092D933C933AC0CC
:1045700020912A0630912B06232B41F420910F0223
:104580003091100230932B0620932A0620910D02C1
:1045900030910E022115310541F42DB73EB74091FF
:1045A000110250911202241B350BE0912A06F09162
:1045B0002B06E217F307A0F42E1B3F0B2817390731
:1045C00078F0AC014E5F5F4F2417350748F04E0F6F
:1045D0005F1F50932B0640932A068193919302C04C
:1045E000E0E0F0E0CF01DF91CF9108950F931F93AA
:1045F000CF93DF93009709F48CC0FC0132971382AC
:10460000128200912C0610912D060115110581F4DE
:1046100020813181820F931F20912A0630912B0631
:104620002817390779F5F0932B06E0932A0671C015
:10463000D80140E050E0AE17BF0750F412962D911C
:104640003C911397AD012115310509F1D901F3CF43
:104650009D01DA013383228360817181860F971F68
:104660008217930769F4EC0128813981260F371FDF
:104670002E5F3F4F318320838A819B819383828386
:10468000452B29F4F0932D06E0932C0642C0139697
:10469000FC93EE931297ED01499159919E01240FDD
:1046A000351FE217F30771F480819181840F951F04
:1046B000029611969C938E938281938113969C937C
:1046C0008E931297E0E0F0E0D80112968D919C91C4
:1046D0001397009719F0F8018C01F6CF8D919C91FA
:1046E00098012E5F3F4F820F931F20912A06309131
:1046F0002B062817390769F4309729F410922D06F4
:1047000010922C0602C01382128210932B06009383
:104710002A06DF91CF911F910F9108956F927F929A
:104720008F929F92AF92BF92CF92DF92EF92FF92C1
:104730000F931F93CF93DF93EC01009781F4CB018C
:10474000DF91CF911F910F91FF90EF90DF90CF906D
:10475000BF90AF909F908F907F906F90B2CEFC01F2
:10476000E60FF71F9C0122503109E217F30708F406
:10477000A8C0D9010D911C91119706171707A8F031
:104780000530110508F49BC0C801049786179707E8
:1047900008F495C002501109061B170B01931193E1
:1047A0006D937C93CF0122DF8AC05B01A01AB10A0E
:1047B0004C01800E911EA0912C06B0912D0640E078
:1047C00050E0E12CF12C109709F44AC0A815B90566
:1047D000D1F56D907C901197630182E0C80ED11CD9
:1047E000CA14DB0480F1A3014A195B096A0182E063
:1047F000C80ED11C1296BC9012971396AC91B5E0DE
:10480000CB16D10440F0B282A38351834083D901F7
:104810006D937C930AC00E5F1F4FC301800F911FE1
:10482000F90191838083EB2DFA2FE114F10431F02B
:10483000D7011396FC93EE93129741C0F0932D0687
:10484000E0932C063CC08D919C9111974817590715
:1048500008F4AC017D0112960D90BC91A02DB3CF50
:1048600080912A0690912B0688159905E1F4461748
:104870005707C8F480910D0290910E02009741F401
:104880008DB79EB74091110250911202841B950B77
:10489000E817F907B0F4F0932B06E0932A06F90124
:1048A000718360830CC0CB010CDE7C01009749F062
:1048B000A801BE0117D0CE0199DEC70104C0CE0108
:1048C00002C080E090E0DF91CF911F910F91FF90A7
:1048D000EF90DF90CF90BF90AF909F908F907F90A0
:1048E0006F900895FB01DC0102C001900D924150D0
:1048F0005040D8F70895DC0101C06D9341505040FD
:10490000E0F70895FB01DC0101900D920020E1F732
:064910000895F894FFCFAA
:104916000103000101110F01FF1B04FF0100002E1E
:1049260006800000000000B40CC0143D0D010D21EE
:104936000DF60C00000000C40FC01405055B0454FE
:10494600046612480476125C046512990D980D20CF
:1049560012DC118B113B06F7109810204D4F4420A6
:104966005345433A002A20426179002A2042617960
:10497600616E002A20436F63756B00206B6D2F53A9
:1049860061006E616E00696E66006F766600206D6E
:104996000020545552003100320030002120424997
:1049A600545449202100312E202773696E697A2ECE
:1049B60000322E202773696E697A004245524142C1
:1049C6004552452E002059494C44495A2020204F33
:1049D60059554E43414B20006261736C610020596A
:1049E6004F59554E43414B2000426973696B6C65C4
:1049F6007400202053454300322E204F59554E4314
:104A0600553A004A45544F4E00676572656B6C69AE
:104A16002E2E2E004D4F443A0020202042415900B0
:104A2600202020424159414E00202020434F43552B
:024A36004B0033
:020000023000CC
:10E000000D9489F10D94B2F10D94B2F10D94B2F129
:10E010000D94B2F10D94B2F10D94B2F10D94B2F1F0
:10E020000D94B2F10D94B2F10D94B2F10D94B2F1E0
:10E030000D94B2F10D94B2F10D94B2F10D94B2F1D0
:10E040000D94B2F10D94B2F10D94B2F10D94B2F1C0
:10E050000D94B2F10D94B2F10D94B2F10D94B2F1B0
:10E060000D94B2F10D94B2F10D94B2F10D94B2F1A0
:10E070000D94B2F10D94B2F10D94B2F10D94B2F190
:10E080000D94B2F10D94B2F10D94B2F10D94B2F180
:10E090000D94B2F10D94B2F10D94B2F10D94B2F170
:10E0A0000D94B2F10D94B2F10D94B2F10D94B2F160
:10E0B0000D94B2F10D94B2F10D94B2F10D94B2F150
:10E0C0000D94B2F10D94B2F10D94B2F10D94B2F140
:10E0D0000D94B2F10D94B2F10D94B2F10D94B2F130
:10E0E0000D94B2F141546D656761323536300041AF
:10E0F000726475696E6F206578706C6F72657220DE
:10E1000073746B3530305632206279204D4C530099
:10E11000426F6F746C6F616465723E004875683F52
:10E1200000436F6D70696C6564206F6E203D200048
:10E130004350552054797065202020203D20005FF9
:10E140005F4156525F415243485F5F3D2000415658
:10E1500052204C696243205665723D20004743437C
:10E160002056657273696F6E203D20004350552024
:10E1700049442020202020203D20004C6F7720663D
:10E18000757365202020203D20004869676820665F
:10E190007573652020203D200045787420667573D6
:10E1A00065202020203D20004C6F636B2066757336
:10E1B000652020203D20004D617220203720323024
:10E1C000313300312E362E3800342E332E350056A2
:10E1D00023202020414444522020206F7020636F70
:10E1E00064652020202020696E73747275637469E1
:10E1F0006F6E2061646472202020496E74657272B3
:10E20000757074006E6F20766563746F7200726A49
:10E210006D702020006A6D70200057686174207056
:10E220006F72743A00506F7274206E6F7420737541
:10E2300070706F72746564004D7573742062652030
:10E2400061206C6574746572002000577269747483
:10E25000696E672045450052656164696E672045B7
:10E26000450045452065727220636E743D00504F35
:10E27000525400303D5A65726F2061646472003FF1
:10E280003D43505520737461747300403D454550C3
:10E29000524F4D207465737400423D426C696E6B41
:10E2A000204C454400453D44756D70204545505215
:10E2B0004F4D00463D44756D7020464C415348001B
:10E2C000483D48656C70004C3D4C69737420492F83
:10E2D0004F20506F72747300513D51756974005234
:10E2E0003D44756D702052414D00563D73686F7707
:10E2F00020696E7465727275707420566563746FF0
:10E30000727300593D506F727420626C696E6B00BD
:10E310002A0011241FBECFEFD1E2DEBFCDBF01E046
:10E320000CBF12E0A0E0B2E0EEE1FDEF03E00BBFB6
:10E3300002C007900D92A030B107D9F712E0A0E01B
:10E34000B2E001C01D92AE30B107E1F70F9460F367
:10E350000D948DFE01E20EBF0FEF0DBF11241FBE05
:10E360000D9460F30D9400F020E030E040ED57E0B4
:10E3700005C0FA013197F1F72F5F3F4F2817390792
:10E38000C0F308959C01260F311DC901A0E0B0E043
:10E390002F5F3F4FABBFFC018791882361F08093D3
:10E3A000C6008091C00086FFFCCF8091C0008064D1
:10E3B0008093C000EACF08958DE08093C6008091DD
:10E3C000C00086FFFCCF8091C00080648093C000B5
:10E3D0008AE08093C6008091C00086FFFCCF8091C8
:10E3E000C00080648093C00008950F94C2F10F9420
:10E3F000DCF10895FC019081992359F09093C600B7
:10E400008091C00086FFFCCF8091C0008064809323
:10E41000C0003196992379F70895282F982F929567
:10E420009F70892F805D8A3308F0895F8093C600D2
:10E430008091C00086FFFCCF8091C00080648093F3
:10E44000C000822F8F70982F905D9A3308F0995FEB
:10E450009093C6008091C00086FFFCCF8091C000E1
:10E4600080648093C00008959C01FB01853691056E
:10E470001CF46330710594F0C90164E670E00F94F8
:10E480002EFE605D7F4F6093C6008091C00086FFC6
:10E49000FCCF8091C00080648093C0002B30310598
:10E4A00014F43297B4F0C90164E670E00F942EFEC4
:10E4B0006AE070E00F942EFE605D7F4F6093C600AF
:10E4C0008091C00086FFFCCF8091C0008064809363
:10E4D000C000C9016AE070E00F942EFEC0968093E0
:10E4E000C6008091C00086FFFCCF8091C000806490
:10E4F0008093C00008951F93182F8EE692EE60E07F
:10E500000F94C2F11093C6008091C00086FFFCCF2B
:10E510008091C00080648093C0000F94DCF11F9153
:10E5200008952F923F924F925F926F927F928F92B7
:10E530009F92AF92BF92CF92DF92EF92FF920F9392
:10E540001F93DF93CF93CDB7DEB762970FB6F894E2
:10E55000DEBF0FBECDBF382E622ECA01DB015C01CB
:10E560006D01772420E2222E2E010894411C511CBB
:10E570008BC081E0A81680E0B80681E0C80680E084
:10E58000D80628F0C601AA27BB270F940DF2BB2797
:10E59000AD2D9C2D8B2D0F940DF28A2D0F940DF225
:10E5A0002092C6008091C00086FFFCCF8091C00001
:10E5B00080648093C0009DE29093C6008091C0006B
:10E5C00086FFFCCF8091C00080648093C0002092C1
:10E5D000C6008091C00086FFFCCF8091C00080649F
:10E5E0008093C00019828601750188249924A1E0D6
:10E5F0003A1651F03A1620F0B2E03B1661F409C029
:10E600000BBFF701779007C0C7010F9477FE782EF4
:10E6100002C0F7017080872D0F940DF22092C60082
:10E620008091C00086FFFCCF8091C0008064809301
:10E63000C000872D8052F401EF70F0708F3520F408
:10E64000E40DF51D708204C0E40DF51D8EE280839B
:10E650000894E11CF11C011D111D0894811C911CE2
:10E6600090E18916910409F0C2CF80E190E0A0E02A
:10E67000B0E0A80EB91ECA1EDB1E198AC2010F9493
:10E68000FAF10F94DCF16A94662009F072CF629679
:10E690000FB6F894DEBF0FBECDBFCF91DF911F91B3
:10E6A0000F91FF90EF90DF90CF90BF90AF909F9031
:10E6B0008F907F906F905F904F903F902F90089534
:10E6C0002F923F924F925F926F927F928F929F9282
:10E6D000AF92BF92CF92DF92EF92FF920F931F9370
:10E6E000DF93CF93CDB7DEB7CD53D1400FB6F894BB
:10E6F000DEBF0FBECDBF01E20EBF0FEF0DBF94B75F
:10E70000F894A89514BE80916000886180936000A1
:10E7100010926000789493FF05C0E0910002F091A0
:10E7200001021995279A2F9A8091C00082608093E8
:10E73000C00080E18093C40088E18093C1000000A4
:10E74000EE24FF24870144E0A42EB12CCC24DD2448
:10E7500024C0C5010197F1F70894E11CF11C011DCB
:10E76000111D21E2E2162EE4F20620E0020720E06D
:10E77000120718F031E0C32ED12CC801B70127ECE5
:10E780003BE140E050E00F9441FE611571058105C9
:10E79000910519F485B1805885B98091C00087FD35
:10E7A00003C0C114D104A9F2A6014F5F5F4FC25E3E
:10E7B000DE4F59834883CE51D140C25EDE4F8881FF
:10E7C0009981CE51D140019711F00D9410FEC05D9A
:10E7D000DE4F19821882C053D14060E0C15DDE4F28
:10E7E0001882CF52D14088249924C35DDE4F19820C
:10E7F0001882CD52D140C05EDE4F188219821A8233
:10E800001B82C052D140CE5CDE4F188219821A8220
:10E810001B82C253D140EE24FF2487010BBFF701B6
:10E8200007911691C45CDE4F19830883CC53D14005
:10E830000D940BFEC25EDE4F28813981CE51D1404E
:10E840002130310509F52091C600C25EDE4F1982E4
:10E850001882CE51D14022C02F5F3F4F4F4F5F4FA4
:10E86000213082E138078AE7480780E0580780F0C6
:10E87000C45CDE4FE881F981CC53D140EF5FFF4F9C
:10E8800019F0EE27FF27099420E030E040E050E047
:10E890008091C00087FFE0CF2091C600C35DDE4FAE
:10E8A00048815981CD52D1404F5F5F4FC35DDE4FEC
:10E8B00059834883CD52D140213209F063C64A3092
:10E8C000510508F05FC60894811C911C53E0851621
:10E8D000910409F059C600E010E018C081E280936D
:10E8E000C6008091C00086FFFCCF8091C00080648C
:10E8F0008093C0002F5F3F4F2931310579F70F9486
:10E90000DCF10F5F1F4F0530110519F020E030E0FA
:10E91000E5CF10920A0210920B0210920C02109294
:10E920000D02109206021092070210920802109235
:10E930000902109202021092030210920402109235
:10E9400005028FEE90EE60E00F94F5F180E191EE1C
:10E9500060E00F94C2F18091C00087FFFCCF9091DE
:10E96000C600903608F09F759032B8F09093C600BC
:10E970008091C00086FFFCCF8091C00080648093AE
:10E98000C000A0E2A093C6008091C00086FFFCCF2B
:10E990008091C00080648093C000983409F4D7C18E
:10E9A0009934B8F4923409F459C1933458F490333B
:10E9B00019F1903308F4E3C59F33A1F1903409F0C5
:10E9C000DEC5BDC0953409F470C1963409F0D7C5D1
:10E9D00098C1923509F42BC2933538F49C3409F46C
:10E9E000F5C1913509F0CBC518C2963509F445C279
:10E9F000993509F0C4C567C483E792EE62E00F94CD
:10EA0000F5F110920602109207021092080210927D
:10EA1000090210920A0210920B0210920C0210923C
:10EA20000D0213C18FE792EE62E00F94F5F18FEEC5
:10EA300090EE60E00F94F5F181E291EE60E00F94CA
:10EA4000C2F187EB91EE60E00F94F5F180E391EE77
:10EA500060E00F94C2F184EE90EE60E00F94F5F167
:10EA60008FE391EE60E00F94C2F186E090E061E008
:10EA700070E00F9434F20F94DCF18DE591EE60E0DC
:10EA80000F94C2F189EC91EE60E00F94F5F18EE401
:10EA900091EE60E00F94C2F183EC91EE60E00F9490
:10EAA000F5F18CE691EE60E00F94C2F18EE10F94E7
:10EAB0000DF288E90F940DF281E00F940DF20F949E
:10EAC000DCF18BE791EE60E00F94C2F119E0E0E039
:10EAD000F0E010935700E4918E2F0F940DF20F94F5
:10EAE000DCF18AE891EE60E00F94C2F1E3E0F0E03F
:10EAF00010935700E4918E2F0F940DF20F94DCF1D8
:10EB000089E991EE60E00F94C2F1E2E0F0E0109349
:10EB10005700E4918E2F0F940DF20F94DCF188EAE8
:10EB200091EE60E00F94C2F1E1E0F0E01093570045
:10EB30001491812F0F940DF20F94DCF107CF8BE825
:10EB400092EE62E00F94F5F18BE492EE60E00F94A8
:10EB5000F5F10F94DCF100E010E019C0C8016F2D51
:10EB60000F947FFEFF2031F489E492EE60E00F9471
:10EB7000C2F10BC0F092C6008091C00086FFFCCFAE
:10EB80008091C00080648093C0000F5F1F4FC80158
:10EB900081519F41A0E0B0E0ABBFFC01F790BAE229
:10EBA000FB1621F0E2E000301E07C1F60F94DCF105
:10EBB0000F94DCF187E592EE60E00F94F5F10F948D
:10EBC000DCF1CC24DD2400E010E01EC0C8010F946D
:10EBD00077FEF82E882331F489E492EE60E00F94FA
:10EBE000C2F10BC08093C6008091C00086FFFCCFAD
:10EBF0008091C00080648093C000FE1419F00894D6
:10EC0000C11CD11C0F5F1F4FC80181519F41A0E063
:10EC1000B0E0ABBFFC01E790FAE2EF1621F022E092
:10EC20000030120799F60F94DCF10F94DCF182E6C4
:10EC300092EE60E00F94C2F1C60161E070E00F94C3
:10EC400034F20F94DCF10F94DCF110920202109276
:10EC50000302109204021092050278CE89E992EE26
:10EC600062E00F94F5F1279A2F9A16C02F9880E052
:10EC700090E0E0EDF7E03197F1F7019684369105E9
:10EC8000C1F72F9A80E090E0E0EDF7E03197F1F7DF
:10EC9000019684369105C1F78091C00087FFE6CFC9
:10ECA0008091C00087FFFCCF64C485EA92EE62E0E9
:10ECB0000F94F5F140910202509103026091040219
:10ECC0007091050281E020E10F9491F2809102029F
:10ECD00090910302A0910402B091050280509F4FD1
:10ECE000AF4FBF4F8093020290930302A0930402A0
:10ECF000B093050280509041A040B04008F426CE69
:10ED0000A4CF83EB92EE62E00F94F5F140910602FE
:10ED100050910702609108027091090280E020E1A1
:10ED20000F9491F28091060290910702A09108023F
:10ED3000B091090280509F4FAF4FBF4F80930602A2
:10ED400090930702A0930802B0930902FFCD80ECD4
:10ED500092EE62E00F94F5F183E792EE60E00F949B
:10ED6000F5F18FE792EE60E00F94F5F18BE892EE0B
:10ED700060E00F94F5F189E992EE60E00F94F5F10F
:10ED800085EA92EE60E00F94F5F183EB92EE60E09D
:10ED90000F94F5F180EC92EE60E00F94F5F187ECC2
:10EDA00092EE60E00F94F5F188ED92EE60E00F9442
:10EDB000F5F18FED92EE60E00F94F5F18AEE92EEB0
:10EDC00060E00F94F5F183E093EEBDCD87EC92EE19
:10EDD00062E00F94F5F181E40F947BF282E40F94EA
:10EDE0007BF283E40F947BF284E40F947BF285E45E
:10EDF0000F947BF286E40F947BF287E40F947BF20E
:10EE000088E40F947BF28AE40F947BF28BE40F94F6
:10EE10007BF28CE40F947BF299CD88ED92EE62E068
:10EE20000F94F5F1772473948824992409C48FED05
:10EE300092EE62E00F94F5F140910A0250910B02BC
:10EE400060910C0270910D0282E020E10F9491F22A
:10EE500080910A0290910B02A0910C02B0910D02D8
:10EE600080509F4FAF4FBF4F80930A0290930B0289
:10EE7000A0930C02B0930D0269CD8AEE92EE62E08F
:10EE80000F94F5F184EE90EE60E00F94F5F18FECC5
:10EE900091EE60E00F94F5F1662477244301CC5D98
:10EEA000DE4F19821882C452D140D401C301B695F5
:10EEB000A79597958795CA5DDE4F88839983AA8326
:10EEC000BB83C652D140CC5DDE4FA881B981C4520C
:10EED000D1401196CC5DDE4FB983A883C452D14096
:10EEE000CD0162E070E00F9434F2B0E2B093C6005E
:10EEF0008091C00086FFFCCF8091C0008064809329
:10EF0000C000EDE2E093C6008091C00086FFFCCF18
:10EF10008091C00080648093C000F0E2F093C6004E
:10EF20008091C00086FFFCCF8091C00080648093F8
:10EF3000C000CA5DDE4FE880F9800A811B81C6529D
:10EF4000D140BB27A12F902F8F2D0F940DF2CA5DBA
:10EF5000DE4F8881C652D1400F940DF2B0E2FB2EF5
:10EF6000F092C6008091C00086FFFCCF8091C00067
:10EF700080648093C0000DE30093C6008091C000C0
:10EF800086FFFCCF8091C00080648093C00010E2B7
:10EF90001093C6008091C00086FFFCCF8091C00016
:10EFA00080648093C0008BBEF3012791C65DDE4F65
:10EFB0002883CA52D140A22EBB24CC24DD2408943D
:10EFC000611C711C811C911C8BBEF3018791282E42
:10EFD0003324442455240894611C711C811C911C09
:10EFE0008BBEF3013791C55DDE4F3883CB52D140E4
:10EFF0000894611C711C811C911C8BBEF30147910C
:10F00000C45DDE4F4883CC52D140ADEFEA2EAFEF66
:10F01000FA2EAFEF0A2FAFEF1A2F6E0C7F1C801E57
:10F02000911E142D032DF22CEE24EA0CFB1C0C1D5A
:10F030001D1D0F940DF220E22093C6008091C000A8
:10F0400086FFFCCF8091C00080648093C000C65DC5
:10F05000DE4F8881CA52D1400F940DF230E23093D6
:10F06000C6008091C00086FFFCCF8091C000806404
:10F070008093C000C45DDE4F8881CC52D1400F9494
:10F080000DF240E24093C6008091C00086FFFCCFA5
:10F090008091C00080648093C000C55DDE4F888190
